:1000000000000120010E0000710E0000730E0000C0
:10001000750E0000770E0000790E00000000000051
:100020000000000000000000000000007B0E000047
:100030007D0E0000000000007F0E0000810E000019
:10004000830E0000830E0000830E0000830E00006C
:10005000830E0000830E0000830E0000830E00005C
:10006000830E0000830E0000830E0000830E00004C
:10007000830E0000830E0000830E0000830E00003C
:10008000830E0000830E0000830E0000830E00002C
:10009000830E0000830E0000830E0000830E00001C
:1000A000830E0000830E0000830E0000830E00000C
:1000B000830E0000830E000000000000000000001E
:1000C000830E0000830E0000830E0000830E0000EC
:1000D000830E0000830E0000830E0000000000006D
:1000E0000000000000000000000000000000000010
:1000F0000000000000000000000000000000000000
:1001000000000000000000000000000000000000EF
:1001100000000000000000000000000000000000DF
:1001200000000000000000000000000000000000CF
:1001300000000000000000000000000000000000BF
:1001400000000000000000000000000000000000AF
:10015000000000000000000000000000000000009F
:10016000000000000000000000000000000000008F
:10017000000000000000000000000000000000007F
:10018000000000000000000000000000000000006F
:10019000000000000000000000000000000000005F
:1001A000000000000000000000000000000000004F
:1001B000000000000000000000000000000000003F
:1001C000000000000000000000000000000000002F
:1001D000000000000000000000000000000000001F
:1001E000000000000000000000000000000000000F
:1001F00000000000000000000000000000000000FF
:0402000010000020CA
:08020400900000000100000061
:10020C000348044B834202D0034B03B11847704799
:10021C00380400203804002000000000054806497E
:10022C000B1AD90F01EBA301491002D0034B03B1F8
:10023C0018477047380400203804002000000000E4
:10024C0010B5064C237843B9FFF7DAFF044B13B112
:10025C000448AFF300800123237010BD3804002044
:10026C00000000000C11000008B5044B1BB1044940
:10027C000448AFF30080BDE80840CFE70000000061
:10028C003C0400200C110000A3F5803A704700BF1D
:10029C00154B002B08BF114B9D46FFF7F5FF0021B6
:1002AC008B460F461148124A121A00F039FE0C4BBD
:1002BC00002B00D098470B4B002B00D09847002008
:1002CC00002104000D000B4800F0D6FD00F004FEE8
:1002DC002000290000F089F800F0D4FD000008008F
:1002EC000000000000000000000001203804002085
:1002FC0054040020B10E000080B400AF4FF0A043B6
:10030C000C22C3F834274FF0A0430C22C3F8382733
:10031C004FF0A0430C22C3F83C274FF0A0430C2213
:10032C00C3F8402700BFBD4680BC704780B400AF07
:10033C004FF0A0430122C3F844274FF0A043012201
:10034C00C3F848274FF0A0430122C3F84C274FF0C5
:10035C00A0430122C3F8502700BFBD4680BC7047A4
:10036C0080B483B000AF78604FF0A043D3F8103561
:10037C0001217A6801FA02F21340002B0CBF012311
:10038C000023DBB218460C37BD4680BC704780B4E6
:10039C0083B000AF78604FF0A043D3F8083501214B
:1003AC007A6801FA02F211464FF0A0420B43C2F8F0
:1003BC00083500BF0C37BD4680BC704780B483B095
:1003CC0000AF78604FF0A043D3F80C3501217A6868
:1003DC0001FA02F211464FF0A0420B40C2F80C3564
:1003EC0000BF0C37BD4680BC704780B584B000AFF1
:1003FC00FFF79CFFFFF780FF00F048F81123FB602C
:10040C0005E0F868FFF7C3FFFB680133FB60FB688E
:10041C00142BF6DD0023BB604323FB710D20FFF78B
:10042C009FFF0346002B06D0412000F06BF800F034
:10043C008BF80346FB710E20FFF792FF0346002B4F
:10044C0006D0422000F05EF800F07EF80346FB7107
:10045C00FB79412B03D11120FFF7B0FF0CE0FB79A6
:10046C00422B03D11220FFF7A9FF05E0FB79002BEB
:10047C0002D11420FFF7A2FF42F21073BB60BB68DD
:10048C00013BBB60BB68002BF9D1C7E780B400AF60
:10049C004FF0A0430122C3F814274FF0A0430122D0
:1004AC00C3F818274FF0A0430022C3F81C274FF0C5
:1004BC00A0430022C3F82027104B0622C3F80C25BA
:1004CC000E4B2822C3F814250C4B0D4AC3F82425D7
:1004DC000A4B4FF0FF32C3F80825084B4FF0FF32A0
:1004EC00C3F81025054B0422C3F80025034B012249
:1004FC001A6000BFBD4680BC704700BF00200040A2
:10050C000050270080B483B000AF0346FB710D4B45
:10051C0001229A600B4AFB79C2F81C35094BD3F8BF
:10052C001C31012B00D0F9E700BF064B0022C3F8A9
:10053C001C21044B0122DA6000BF0C37BD4680BC85
:10054C00704700BF0020004080B400AF094BD3F8C7
:10055C000831012B08D1074B0022C3F80821054BA9
:10056C00D3F81835DBB200E000231846BD4680BC3A
:10057C00704700BF0020004080B483B000AF1E4B1A
:10058C001B68B3F1FF3F0AD11C4B1B68DBB27B60CD
:10059C001B4B1B681B0903F00F033B6005E0164B5C
:1005AC001B687B60174B1B683B607B68062B1DD15F
:1005BC003B68033B042B17D801A252F823F000BF71
:1005CC00E1050000E5050000E9050000ED0500006F
:1005DC00F105000001230AE0012308E0012306E0F5
:1005EC00012304E0012302E0012300E0002318466C
:1005FC000C37BD4680BC704730010010E00F00F096
:10060C00E80F00F03401001080B483B000AF184B39
:10061C001B68DBB27B60174B1B681B0903F00F03D5
:10062C003B607B68062B1DD13B68033B042B17D822
:10063C0001A252F823F000BF590600005D0600002D
:10064C0061060000650600006906000001230AE04F
:10065C00002308E0002306E0002304E0002302E06E
:10066C00002300E0002318460C37BD4680BC7047C1
:10067C00E00F00F0E80F00F080B483B000AF1E4B29
:10068C001B68B3F1FF3F0AD11C4B1B68DBB27B60CC
:10069C001B4B1B681B0903F00F033B6005E0164B5B
:1006AC001B687B60174B1B683B607B68062B1DD15E
:1006BC003B68033B042B17D801A252F823F000BF70
:1006CC00E1060000E5060000E9060000ED0600006A
:1006DC00F106000001230AE0012308E0012306E0F3
:1006EC00012304E0012302E0012300E0002318466B
:1006FC000C37BD4680BC704730010010E00F00F095
:10070C00E80F00F03401001080B483B000AF184B38
:10071C001B68DBB27B60174B1B681B0903F00F03D4
:10072C003B607B68062B1DD13B68033B042B17D821
:10073C0001A252F823F000BF590700005D0700002A
:10074C0061070000650700006907000001230AE04B
:10075C00002308E0002306E0002304E0002302E06D
:10076C00002300E0002318460C37BD4680BC7047C0
:10077C00E00F00F0E80F00F080B483B000AF1E4B28
:10078C001B68B3F1FF3F0AD11C4B1B68DBB27B60CB
:10079C001B4B1B681B0903F00F033B6005E0164B5A
:1007AC001B687B60174B1B683B607B68062B1DD15D
:1007BC003B68033B042B17D801A252F823F000BF6F
:1007CC00E1070000E5070000E9070000ED07000065
:1007DC00F107000001230AE0012308E0012306E0F1
:1007EC00012304E0012302E0012300E0002318466A
:1007FC000C37BD4680BC704730010010E00F00F094
:10080C00E80F00F03401001080B483B000AF184B37
:10081C001B68DBB27B60174B1B681B0903F00F03D3
:10082C003B607B68062B1DD13B68033B042B17D820
:10083C0001A252F823F000BF590800005D08000027
:10084C0061080000650800006908000001230AE047
:10085C00002308E0002306E0002304E0002302E06C
:10086C00002300E0002318460C37BD4680BC7047BF
:10087C00E00F00F0E80F00F080B483B000AF184B2D
:10088C001B68DBB27B60174B1B681B0903F00F0363
:10089C003B607B68062B1DD13B68033B042B17D8B0
:1008AC0001A252F823F000BFC9080000CD080000D7
:1008BC00D1080000D5080000D908000001230AE087
:1008CC00002308E0002306E0002304E0002302E0FC
:1008DC00002300E0002318460C37BD4680BC70474F
:1008EC00E00F00F0E80F00F080B483B000AF1E4BB7
:1008FC001B68B3F1FF3F0AD11C4B1B68DBB27B605A
:10090C001B4B1B681B0903F00F033B6005E0164BE8
:10091C001B687B60174B1B683B607B68062B1DD1EB
:10092C003B68033B042B17D801A252F823F000BFFD
:10093C005109000055090000590900005D0900002B
:10094C006109000000230AE0002308E0012306E00F
:10095C00012304E0012302E0012300E000231846F8
:10096C000C37BD4680BC704730010010E00F00F022
:10097C00E80F00F03401001080B483B000AF1E4BC0
:10098C001B68B3F1FF3F0AD11C4B1B68DBB27B60C9
:10099C001B4B1B681B0903F00F033B6005E0164B58
:1009AC001B687B60174B1B683B607B68062B1DD15B
:1009BC003B68033B042B17D801A252F823F000BF6D
:1009CC00E1090000E5090000E9090000ED0900005B
:1009DC00F109000001230AE0012308E0012306E0ED
:1009EC00012304E0012302E0012300E00023184668
:1009FC000C37BD4680BC704730010010E00F00F092
:100A0C00E80F00F03401001080B483B000AF1E4B2F
:100A1C001B68B3F1FF3F0AD11C4B1B68DBB27B6038
:100A2C001B4B1B681B0903F00F033B6005E0164BC7
:100A3C001B687B60174B1B683B607B68062B1DD1CA
:100A4C003B68033B042B17D801A252F823F000BFDC
:100A5C00710A0000750A0000790A00007D0A000086
:100A6C00810A000001230AE0012308E0012306E0CB
:100A7C00012304E0012302E0012300E000231846D7
:100A8C000C37BD4680BC704730010010E00F00F001
:100A9C00E80F00F03401001080B483B000AF164BA7
:100AAC001B687B60154B1B683B607B68062B1DD15C
:100ABC003B68033B042B17D801A252F823F000BF6C
:100ACC00E10A0000E50A0000E90A0000ED0A000056
:100ADC00F10A000000230AE0002308E0002306E0EE
:100AEC00012304E0012302E0012300E00023184667
:100AFC000C37BD4680BC704730010010340100102B
:100B0C0080B483B000AF164B1B687B60154B1B6821
:100B1C003B607B68062B1DD13B68033B042B17D82D
:100B2C0001A252F823F000BF490B00004D0B00004E
:100B3C00510B0000550B0000590B000000230AE07C
:100B4C00002308E0002306E0002304E0012302E078
:100B5C00012300E0002318460C37BD4680BC7047CB
:100B6C00300100103401001080B500AFFFF7C8FF52
:100B7C000346002B07D04FF010234FF08042D3F8E0
:100B8C000832C2F8583500BF80BD000080B400AFF9
:100B9C00034B044A1A6000BFBD4680BC704700BFBF
:100BAC00000000200090D00380B500AFFFF7E4FCFC
:100BBC000346002B06D07F4B1B681B0A7E4A03F0B2
:100BCC001F031360FFF720FD0346002B02D07B4B65
:100BDC007B4A1A60FFF750FD0346002B06D0794B79
:100BEC001B685B0B784A03F007031360FFF78CFD5F
:100BFC000346002B05D0754BDB68744A23F08073D9
:100C0C00D360FFF7B9FD0346002B0ED04FF08043A5
:100C1C000022C3F80C214FF080430022C3F81021AE
:100C2C004FF080430022C3F83825FFF7EDFD034653
:100C3C00002B02D0664B03221A60FFF71DFE034601
:100C4C00002B0BD0634B05221A60634B01221A60F8
:100C5C00624B00221A60624B3F221A60FFF744FE7F
:100C6C000346002B76D04FF080535E4AD3F8043401
:100C7C00C2F820354FF080535A4AD3F80834C2F8E2
:100C8C0024354FF08053574AD3F80C34C2F828352A
:100C9C004FF08053534AD3F81034C2F82C354FF030
:100CAC008053504AD3F81434C2F830354FF0805387
:100CBC004C4AD3F81834C2F834354FF08053494AB3
:100CCC00D3F81C34C2F840354FF08053454AD3F862
:100CDC002034C2F844354FF08053424AD3F82434C0
:100CEC00C2F848354FF080533E4AD3F82834C2F846
:100CFC004C354FF080533B4AD3F82C34C2F8503566
:100D0C004FF08053374AD3F83034C2F854354FF093
:100D1C008053344AD3F83434C2F860354FF08053E2
:100D2C00304AD3F83834C2F864354FF080532D4A2A
:100D3C00D3F83C34C2F868354FF08053294AD3F8C5
:100D4C004034C2F86C354FF08053264AD3F8443403
:100D5C00C2F87035FFF710FE0346002B05D0224B6E
:100D6C001B68224A03F04F031360FFF74DFE034646
:100D7C00002B0DD04FF08043D3F8003403F0010367
:100D8C00002B05D04FF080436FF00102C3F8002414
:100D9C00FFF782FE0346002B05D0154B1B68144A47
:100DAC0043F480631360FFF7DFFEFFF7EFFE00BF35
:100DBC0080BD00BF240300104035014074C00740C3
:100DCC000DF0ADBA440200103C050040F0ED00E01F
:100DDC00A0050040105600408856004018560040B0
:100DEC001456004000C0004058020010E40E0040B1
:100DFC003C1700400F49104A104B00F010F81049F6
:100E0C00104A114B00F00BF81049114A114B00F02D
:100E1C0006F81149114A124B00F001F806E0521A7B
:100E2C0003DD043A98588850FBDC7047FFF7BCFE92
:100E3C00FFF72EFA000000203804002058110000A3
:100E4C0038040020380400209015000038040020DD
:100E5C0038040020901500003804002038040020CD
:100E6C0090150000FEE7FEE7FEE7FEE7FEE7FEE773
:100E7C00FEE7FEE7FEE7FEE7002301461A461846AA
:100E8C0000F09EB808B50021044600F0CDF8044BE4
:100E9C001868C36B03B19847204600F01DF900BFDA
:100EAC000002000038B50A4C0A4D641BA4100AD08D
:100EBC0004F18043013B05EB8305013C55F80439F3
:100ECC009847002CF9D1BDE8384000F011B900BFAB
:100EDC000C1100000811000070B50D4E0D4D761B65
:100EEC00B61006D00024013455F8043B9847A642AE
:100EFC00F9D1094E094D761B00F0F0F8B61006D06A
:100F0C000024013455F8043B9847A642F9D170BD32
:100F1C00F4100000F4100000FC100000F4100000AD
:100F2C00F0B4860746D0541E002A3CD0CAB2034601
:100F3C0002E014F1FF3436D303F8012B9D07F8D1EE
:100F4C00032C29D9CDB245EA05250F2C45EA0545D8
:100F5C0033D9A4F11006360903F1200707EB061765
:100F6C0003F1100242E9045542E902551032BA422B
:100F7C00F8D1721C14F00C0F03EB021204F00F06E4
:100F8C0013D0331F23F003030433134442F8045BE0
:100F9C009342FBD106F003042CB1C9B21C4403F8F4
:100FAC00011B9C42FBD1F0BC704734461346002C0D
:100FBC00F3D1F8E714460346C2E71A462646E0E7A3
:100FCC00F0B4184C2568D5F8484114B365681F2D4A
:100FDC0024DC38B9AB1C0135656044F823100020C3
:100FEC00F0BC704704EB85060127C6F8882007FA89
:100FFC0005F2D4F88871022847EA0207C4F8887110
:10100C00C6F80831E6D1D4F88C311A43C4F88C21D7
:10101C00E0E705F5A674C5F84841D7E74FF0FF3077
:10102C00DEE700BF000200002DE9F04F244B83B037
:10103C00D3F800B001908A464FF00008DBF8486105
:10104C0096B17468651E0FD4013406EB8404012735
:10105C00BAF1000F0BD0D4F80031534507D0013D45
:10106C006B1CA4F10404F3D103B0BDE8F08F7368DA
:10107C002268013BAB420CBF7560C4F80080002AAB
:10108C00EDD0D6F88811D6F8049007FA05FC1CEAC6
:10109C00010F08D1904772684A45CFD1DBF848312F
:1010AC00B342DCD0CAE7D6F88C31D4F880101CEAF5
:1010BC00030F02D101989047EDE708469047EAE705
:1010CC0000020000024B13B10248FFF7D5BE704777
:1010DC0000000000B10E0000FEE700BFF8B500BF35
:1010EC00F8BC08BC9E467047D11000007502000089
:1010FC00F8B500BFF8BC08BC9E4670474D02000016
:04110C0000000000DF
:1011100058110000000000200E0100009015000092
:101120003804002000000000901500003804002062
:1011300000000000901500003804002000000000AE
:1011400038040020070000005404002000000000C4
:0811500054040020000000001F
:101158000090D003000000001000002000000000F4
:1011680000000000FC02002064030020CC030020E3
:101178000000000000000000000000000000000067
:101188000000000000000000000000000000000057
:101198000000000000000000000000000000000047
:1011A8000000000000000000000000000000000037
:1011B8000000000000000000000000000000000027
:1011C8000000000000000000000000000000000017
:1011D8000000000000000000000000000000000007
:1011E80000000000000000000000000000000000F7
:1011F80000000000000000000000000000000000E7
:1012080000000000000000000100000000000000D5
:101218000E33CDAB34126DE6ECDE05000B0000009A
:1012280000000000000000000000000000000000B6
:1012380000000000000000000000000000000000A6
:101248000000000000000000000000000000000096
:101258000000000000000000000000000000000086
:0400000300000E01EA
:00000001FF
